:020000040000fa
:080000000002040000000000f2
:020000040000fa
:040008003e030000b3
:020000040000fa
:04000c003e030000af
:020000040000fa
:040010003e030000ab
:020000040000fa
:040014003e030000a7
:020000040000fa
:040018003e030000a3
:020000040000fa
:04001c003e0300009f
:020000040000fa
:040020003e0300009b
:020000040000fa
:040024003e03000097
:020000040000fa
:040028003e03000093
:020000040000fa
:04002c00fa020000d4
:020000040000fa
:040030003e0300008b
:020000040000fa
:040034003e03000087
:020000040000fa
:040038003e03000083
:020000040000fa
:04003c003e0300007f
:020000040000fa
:040040003e0300007b
:020000040000fa
:040044003e03000077
:020000040000fa
:040048003e03000073
:020000040000fa
:04004c003e0300006f
:020000040000fa
:040050003e0300006b
:020000040000fa
:040054003e03000067
:020000040000fa
:040058003e03000063
:020000040000fa
:04005c003e0300005f
:020000040000fa
:040060003e0300005b
:020000040000fa
:040064003e03000057
:020000040000fa
:040068003e03000053
:020000040000fa
:04006c003e0300004f
:020000040000fa
:040070003e0300004b
:020000040000fa
:040074003e03000047
:020000040000fa
:040078003e03000043
:020000040000fa
:04007c003e0300003f
:020000040000fa
:040080003e0300003b
:020000040000fa
:040084003e03000037
:020000040000fa
:040088003e03000033
:020000040000fa
:04008c003e0300002f
:020000040000fa
:040090003e0300002b
:020000040000fa
:040094003e03000027
:020000040000fa
:040098003e03000023
:020000040000fa
:04009c003e0300001f
:020000040000fa
:0400a0003e0300001b
:020000040000fa
:0400a4003e03000017
:020000040000fa
:0400a8003e03000013
:020000040000fa
:0400ac003e0300000f
:020000040000fa
:0400b0003e0300000b
:020000040000fa
:0400b4003e03000007
:020000040000fa
:0400b8003e03000003
:020000040000fa
:0400bc003e030000ff
:020000040000fa
:0400c0003e030000fb
:020000040000fa
:0400c4003e030000f7
:020000040000fa
:0400c8003e030000f3
:020000040000fa
:0400cc003e030000ef
:020000040000fa
:0400d0003e030000eb
:020000040000fa
:0400d4003e030000e7
:020000040000fa
:0400d8003e030000e3
:020000040000fa
:0400dc003e030000df
:020000040000fa
:0400e0003e030000db
:020000040000fa
:0400e4003e030000d7
:020000040000fa
:0400e8003e030000d3
:020000040000fa
:0400ec003e030000cf
:020000040000fa
:0400f0003e030000cb
:020000040000fa
:0400f4003e030000c7
:020000040000fa
:0400f8003e030000c3
:020000040000fa
:0400fc003e030000bf
:020000040000fa
:040100003e030000ba
:020000040000fa
:040104003e030000b6
:020000040000fa
:040108003e030000b2
:020000040000fa
:04010c003e030000ae
:020000040000fa
:040110003e030000aa
:020000040000fa
:040114003e030000a6
:020000040000fa
:040118003e030000a2
:020000040000fa
:04011c003e0300009e
:020000040000fa
:040120003e0300009a
:020000040000fa
:040124003e03000096
:020000040000fa
:040128003e03000092
:020000040000fa
:04012c003e0300008e
:020000040000fa
:040130003e0300008a
:020000040000fa
:040134003e03000086
:020000040000fa
:040138003e03000082
:020000040000fa
:04013c003e0300007e
:020000040000fa
:040140003e0300007a
:020000040000fa
:040144003e03000076
:020000040000fa
:040148003e03000072
:020000040000fa
:04014c003e0300006e
:020000040000fa
:040150003e0300006a
:020000040000fa
:040154003e03000066
:020000040000fa
:040158003e03000062
:020000040000fa
:04015c003e0300005e
:020000040000fa
:040160003e0300005a
:020000040000fa
:040164003e03000056
:020000040000fa
:040168003e03000052
:020000040000fa
:04016c003e0300004e
:020000040000fa
:040170003e0300004a
:020000040000fa
:040174003e03000046
:020000040000fa
:040178003e03000042
:020000040000fa
:04017c003e0300003e
:020000040000fa
:040180003e0300003a
:020000040000fa
:040184003e03000036
:020000040000fa
:040188003e03000032
:020000040000fa
:04018c003e0300002e
:020000040000fa
:040190003e0300002a
:020000040000fa
:040194003e03000026
:020000040000fa
:040198003e03000022
:020000040000fa
:04019c003e0300001e
:020000040000fa
:0401a0003e0300001a
:020000040000fa
:0401a4003e03000016
:020000040000fa
:0401a8003e03000012
:020000040000fa
:0401ac003e0300000e
:020000040000fa
:0401b0003e0300000a
:020000040000fa
:0401b4003e03000006
:020000040000fa
:0401b8003e03000002
:020000040000fa
:0401bc003e030000fe
:020000040000fa
:0401c0003e030000fa
:020000040000fa
:0401c4003e030000f6
:020000040000fa
:0401c8003e030000f2
:020000040000fa
:0401cc003e030000ee
:020000040000fa
:0401d0003e030000ea
:020000040000fa
:0401d4003e030000e6
:020000040000fa
:0401d8003e030000e2
:020000040000fa
:0401dc003e030000de
:020000040000fa
:0401e0003e030000da
:020000040000fa
:0401e4003e030000d6
:020000040000fa
:0401e8003e030000d2
:020000040000fa
:0401ec003e030000ce
:020000040000fa
:0401f0003e030000ca
:020000040000fa
:0401f4003e030000c6
:020000040000fa
:0401f8003e030000c2
:020000040000fa
:0401fc003e030000be
:020000040000fa
:040200003e030000b9
:020000040000fa
:040204003e030000b5
:020000040000fa
:040208003e030000b1
:020000040000fa
:04020c003e030000ad
:020000040000fa
:040210003e030000a9
:020000040000fa
:040214003e030000a5
:020000040000fa
:040218003e030000a1
:020000040000fa
:04021c003e0300009d
:020000040000fa
:040220003e03000099
:020000040000fa
:040224003e03000095
:020000040000fa
:040228003e03000091
:020000040000fa
:04022c003e0300008d
:020000040000fa
:040230003e03000089
:020000040000fa
:040234003e03000085
:020000040000fa
:040238003e03000081
:020000040000fa
:04023c003e0300007d
:020000040000fa
:040240003e03000079
:020000040000fa
:040244003e03000075
:020000040000fa
:040248003e03000071
:020000040000fa
:04024c003e0300006d
:020000040000fa
:040250003e03000069
:020000040000fa
:040254003e03000065
:020000040000fa
:040258003e03000061
:020000040000fa
:04025c003e0300005d
:020000040000fa
:040260003e03000059
:020000040000fa
:040264003e03000055
:020000040000fa
:040268003e03000051
:020000040000fa
:04026c003e0300004d
:020000040000fa
:040270003e03000049
:020000040000fa
:040274003e03000045
:020000040000fa
:040278003e03000041
:020000040000fa
:04027c003e0300003d
:020000040000fa
:040280003e03000039
:020000040000fa
:040284003e03000035
:020000040000fa
:040288003e03000031
:020000040000fa
:04028c003e0300002d
:020000040000fa
:040290003e03000029
:020000040000fa
:040294003e03000025
:020000040000fa
:040298003e03000021
:020000040000fa
:04029c003e0300001d
:020000040000fa
:0402a0003e03000019
:020000040000fa
:0402a4003e03000015
:020000040000fa
:0402a8003e03000011
:020000040000fa
:0402ac003e0300000d
:020000040000fa
:0402b0003e03000009
:020000040000fa
:0402b4003e03000005
:020000040000fa
:0402b8003e03000001
:020000040000fa
:0402bc003e030000fd
:020000040000fa
:0402c0003e030000f9
:020000040000fa
:0402c4003e030000f5
:020000040000fa
:0402c8003e030000f1
:020000040000fa
:0402cc003e030000ed
:020000040000fa
:0402d0003e030000e9
:020000040000fa
:0402d4003e030000e5
:020000040000fa
:0402d8003e030000e1
:020000040000fa
:0402dc003e030000dd
:020000040000fa
:0402e0003e030000d9
:020000040000fa
:0402e4003e030000d5
:020000040000fa
:0402e8003e030000d1
:020000040000fa
:0402ec003e030000cd
:020000040000fa
:0402f0003e030000c9
:020000040000fa
:0402f4003e030000c5
:020000040000fa
:0402f8003e030000c1
:020000040000fa
:0402fc003e030000bd
:020000040000fa
:040300003e030000b8
:020000040000fa
:040304003e030000b4
:020000040000fa
:040308003e030000b0
:020000040000fa
:04030c003e030000ac
:020000040000fa
:040310003e030000a8
:020000040000fa
:040314003e030000a4
:020000040000fa
:040318003e030000a0
:020000040000fa
:04031c003e0300009c
:020000040000fa
:040320003e03000098
:020000040000fa
:040324003e03000094
:020000040000fa
:100400000f0321000eff22000e01880000000000f3
:10041000000020000000e000020032000001200087
:100420002002880014000700960007000000e0008a
:1004300003003a0060642000010020000200370041
:100440000000200001002000810f70000100320038
:100450000f000700000020000000e0000200320052
:10046000000002000000000006060200000000007c
:100470000040da000000fe00200020000000e00044
:1004800002003200100020009001880000000600e9
:10049000a1028800800478000000eb001f003700f4
:1004a000e284440054a0b4009905ba00e2844400f8
:1004b00054a0b4009906ba00e284440054a0b400e9
:1004c0000006eb00476fde00fd07b200ae018800ba
:1004d000636ce10003003a000ad801000000eb0061
:1004e0000e003700606ce10008003a00004deb00a0
:1004f0000a05e800020039003420ec000af0a000f0
:100500008b05e900f9ff3e00040037006168e10057
:10051000010032000086eb000b00070019c7ba008b
:100520001905ba000e04e00003003a000a00e000da
:10053000dbff3a0000000600fe07b200ae028800b2
:100540008a047800f5ff37000cd0a300e20f4d00bd
:100550001c003b0089027800354dba000a05e8000e
:10056000020039003420ec000af0a0008b05e900fd
:100570000f003200254dba000a05e80002003900dc
:100580003420ec000af0a0008b05e90008003200de
:100590000c00e0000600320015cdba000a05e800a4
:1005a000020039003420ec000af0a0008b05e900bd
:1005b0008984e80054a0b4000b00e000e2ff3a0098
:1005c000000006009902ba00055d78008b05e9007d
:1005d000f7ff3200c82ade00055d78008b05e900d0
:1005e000f3ff32000c00e000f1ff320019ddba0029
:1005f000eeff37003600f800809fbe00829fbe00ed
:10060000849fbe00869fbe000000fa00108080001c
:100610000000e8001080880000d0bf000004e00067
:10062000010032004900070011808000703e200068
:10063000808f50000300360010c0b30004f0b700f4
:100640000230ef0008d0bf000004e00003003200d9
:10065000308080000000e900308088000028a90078
:100660000080fa004f03be004f02be004f01be00e3
:100670004f00be003600f900004006000040da00de
:080680000000fe00000005006f
:020000040000fa
:100688000000fa003acea9003aeea9003b8ea90074
:100698003baea900020ea9001e4ea9001eeea9003d
:1006a8001f2ea9001f4ea900570ea900562ea900fb
:1006b800022ea900000ea9001c4ea9001ceea900dc
:1006c8001d2ea900f070800000a0a100f070880025
:1006d8008041eb000041eb008040eb000040eb0064
:1006e8000600070038cea900002ea90010c0b300ec
:1006f80000f0b7000080fa00000006000400fa00cd
:10070800004f780011479800224798003347980017
:10071800c00221001e487800d00221009e409000af
:1007280001487800e0022100ae40900001487800be
:10073800f0022100be409000014878000080fa00d5
:10074800000006000200fa00830007000ad0bf007c
:100758000080fb00c10221000080400010407800aa
:100768000080fb00c100210000804000104f78008d
:100778009e40780061c06000614060006140600098
:100788000080fb0061006000317080000100a10062
:1007980001007000307088001e80fb00620060005d
:1007a8000080d10000407800614060000080fb00bc
:1007b800610060004200dd00117180000120a1008d
:1007c80001007000107188001e80fb00640060004a
:1007d8004280de0000407800614060000080fb003d
:1007e800610060004700dd00117180000170a10008
:1007f80001007000107188001e80fb006800600016
:100808004380de0000407800614060000080fb000b
:10081800610060004900dd00117180000190a100b5
:1008280001007000107188001e80fb0070006000dd
:100838004480de0000407800614060000080fb00da
:10084800610060004a00dd001171800001a0a10074
:1008580001007000107188009e80fb0000022000db
:10086800008060004580de00004078006140600044
:100878000080fb00610060004800dd00d17280004c
:100888000180a10001007000d07288009e80fb00ea
:1008980000042000008060004680de0000407800f0
:1008a800614060000080fb006100600000004000c3
:1008b800d17280000110a10001007000d072880080
:1008c8000ad0bf000080fb00e10f50000d0032008d
:1008d800e10f500003003c000000e0000600320079
:1008e80011003700e20f500009003200e30f5000fa
:1008f8000a0032000c0037003faea800062ea80000
:10090800090037003f8ea800062ea9000600370010
:100918003eeea800062ea800030037003ecea80031
:10092800062ea800000000000ad0bf000040e80022
:100938000af0b7000ad0bf00e34f500002003e00a3
:100948000ad0bf00010037000040eb000af0b700f2
:100958000080fa00000006000000fa00060ea80059
:10096800224ea80022eea800232ea800234ea8009d
:100978005b0ea8005a2ea800062ea8003faea900bc
:100988003f8ea9003eeea9003ecea9000080fa00e5
:10099800000006000000fa003a2ea9003a0ea9004d
:1009a8001e6ea9001e8ea9003aaea8003a8ea800b5
:1009b8003a6ea8003a4ea800382ea900380ea900b1
:1009c8001c6ea9001c8ea900386ea900384ea9001b
:1009d8000080fa00000006000800fa00604798004e
:1009e8000040eb00004f78000000eb001007980073
:1009f8006d0037001e4078000004e0006e003a00e9
:100a08003e2ea8003e0ea800226ea800228ea80046
:100a18001e009000e10f50000c003200e10f500062
:100a280003003c000000e000060032000d00370023
:100a3800e20f500007003200e30f500007003200b9
:100a4800080037003e2ea900060037003e0ea90018
:100a580004003700226ea90002003700228ea90088
:100a6800000000000000eb00200798004800370055
:100a78002e009000e10f500017003200e10f5000e7
:100a880003003c000000e000060032003d00370093
:100a9800e20f50001c003200e30f50002600320025
:100aa80038003700e17180000002200000806000fb
:100ab8000000e0002c003a002e009000c200dd008b
:100ac8001e00900000804000c1012100008040000d
:100ad800104f78002b003700e07180007000600034
:100ae8000000e00022003a002e009000c200dd0065
:100af8001e00900000804000c101210000804000dd
:100b0800104f78001f003700e07180006800600017
:100b18000000e00018003a002e009000c200dd003e
:100b28001e00900000804000c101210000804000ac
:100b3800104f780013003700e071800064006000f7
:100b48000000e0000e003a002e009000c200dd0018
:100b58001e00900000804000c1012100008040007c
:100b6800104f78000700370000000000050037002c
:100b780000000000030037000000000001003700fb
:100b8800000000002e0090000000e80020079800f8
:100b98002e009000e30f5000b5ff34001e009000b7
:100ba8000000e800100798001e009000e30f5000b6
:100bb80090ff340001003700000000001e4078005c
:100bc8000004e0000c0032006e409000e14f50003d
:100bd80009003a001e80fb000003b100e90f500035
:100be80003003c0000cdb3001e4f40000200370058
:100bf80090ccb3001e4f40001e4078000080fa00e1
:100c0800000006000200fa003d0007009cfe0700f5
:100c180060ff07000040eb006fff070010479800d7
:100c28001e4090009e40780080cf50000f00320098
:100c38001e4090000004e0000c0032001e409000ae
:100c48000080fb000003b100e90f500004003c00e5
:100c58009e40900000cdb30000cf40000300370055
:100c68009e40900090ccb30000cf40009e41780099
:100c78001e4178009e4078001e4078009ffe0700c5
:040c8800e4ff37004e
:020000040000fa
:100c8c0006100000040000008000000000100000ae
:100c9c0006000000800000000c1000001000000096
:100cac0082000000c0f9a400b099920082f8800084
:100cbc0098888300c6a186008e0000002c100000ce
:100ccc0004000000800000000a1000000200000078
:100cdc00800000001c1000001000000082000000ca
:100cec003132330041343500364237003839430055
:0c0cfc00304645004400000000000000ed
:020000040000fa
:100d08000000fa000421ef00401f2000400888007e
:100d180001088000f0fc2f00008060000040a00067
:100d2800000888000021a90001428000f0f82f0087
:100d3800008060000060a000004288000028a90030
:100d48002028a80001e1a8000080fa0000000600a1
:100d58000200fa00000f78001e007800308088003a
:100d680010c0b30008f0b700000000003080800019
:100d78000000e000fdff3a000870ef000080fa0074
:040d88000000060061
:020000040000fa
:020000040001f9
:045e0000ffffff00a1
:020000040000fa
:020000040001f9
:045e2000ffffff0081
:020000040000fa
:020000040001f9
:045e3000f8ffff0078
:020000040000fa
:020000040001f9
:045e3800bfffff00a9
:020000040000fa
:020000040001f9
:045e4000ffffff0061
:020000040000fa
:020000040001f9
:045e4800ffffff0059
:020000040000fa
:020000040001f9
:045e5000dfffff0071
:020000040000fa
:020000040001f9
:045e5800ffffff0049
:020000040000fa
:020000040001f9
:045e6000ffffff0041
:020000040000fa
:020000040001f9
:045e6800ffffff0039
:020000040000fa
:020000040001f9
:045e7000ffffff0031
:020000040000fa
:020000040001f9
:045e7800ffffff0029
:020000040000fa
:020000040001f9
:045e8000fffcff0024
:020000040000fa
:020000040001f9
:045e8800ffffff0019
:00000001FF
