:020000040000fa
:080000000002040000000000f2
:020000040000fa
:040008003e030000b3
:020000040000fa
:04000c003e030000af
:020000040000fa
:040010003e030000ab
:020000040000fa
:040014003e030000a7
:020000040000fa
:040018003e030000a3
:020000040000fa
:04001c003e0300009f
:020000040000fa
:040020003e0300009b
:020000040000fa
:040024003e03000097
:020000040000fa
:040028003e03000093
:020000040000fa
:04002c00fa020000d4
:020000040000fa
:040030003e0300008b
:020000040000fa
:040034003e03000087
:020000040000fa
:040038003e03000083
:020000040000fa
:04003c003e0300007f
:020000040000fa
:040040003e0300007b
:020000040000fa
:040044003e03000077
:020000040000fa
:040048003e03000073
:020000040000fa
:04004c003e0300006f
:020000040000fa
:040050003e0300006b
:020000040000fa
:040054003e03000067
:020000040000fa
:040058003e03000063
:020000040000fa
:04005c003e0300005f
:020000040000fa
:040060003e0300005b
:020000040000fa
:040064003e03000057
:020000040000fa
:040068003e03000053
:020000040000fa
:04006c003e0300004f
:020000040000fa
:040070003e0300004b
:020000040000fa
:040074003e03000047
:020000040000fa
:040078003e03000043
:020000040000fa
:04007c003e0300003f
:020000040000fa
:040080003e0300003b
:020000040000fa
:040084003e03000037
:020000040000fa
:040088003e03000033
:020000040000fa
:04008c003e0300002f
:020000040000fa
:040090003e0300002b
:020000040000fa
:040094003e03000027
:020000040000fa
:040098003e03000023
:020000040000fa
:04009c003e0300001f
:020000040000fa
:0400a0003e0300001b
:020000040000fa
:0400a4003e03000017
:020000040000fa
:0400a8003e03000013
:020000040000fa
:0400ac003e0300000f
:020000040000fa
:0400b0003e0300000b
:020000040000fa
:0400b4003e03000007
:020000040000fa
:0400b8003e03000003
:020000040000fa
:0400bc003e030000ff
:020000040000fa
:0400c0003e030000fb
:020000040000fa
:0400c4003e030000f7
:020000040000fa
:0400c8003e030000f3
:020000040000fa
:0400cc003e030000ef
:020000040000fa
:0400d0003e030000eb
:020000040000fa
:0400d4003e030000e7
:020000040000fa
:0400d8003e030000e3
:020000040000fa
:0400dc003e030000df
:020000040000fa
:0400e0003e030000db
:020000040000fa
:0400e4003e030000d7
:020000040000fa
:0400e8003e030000d3
:020000040000fa
:0400ec003e030000cf
:020000040000fa
:0400f0003e030000cb
:020000040000fa
:0400f4003e030000c7
:020000040000fa
:0400f8003e030000c3
:020000040000fa
:0400fc003e030000bf
:020000040000fa
:040100003e030000ba
:020000040000fa
:040104003e030000b6
:020000040000fa
:040108003e030000b2
:020000040000fa
:04010c003e030000ae
:020000040000fa
:040110003e030000aa
:020000040000fa
:040114003e030000a6
:020000040000fa
:040118003e030000a2
:020000040000fa
:04011c003e0300009e
:020000040000fa
:040120003e0300009a
:020000040000fa
:040124003e03000096
:020000040000fa
:040128003e03000092
:020000040000fa
:04012c003e0300008e
:020000040000fa
:040130003e0300008a
:020000040000fa
:040134003e03000086
:020000040000fa
:040138003e03000082
:020000040000fa
:04013c003e0300007e
:020000040000fa
:040140003e0300007a
:020000040000fa
:040144003e03000076
:020000040000fa
:040148003e03000072
:020000040000fa
:04014c003e0300006e
:020000040000fa
:040150003e0300006a
:020000040000fa
:040154003e03000066
:020000040000fa
:040158003e03000062
:020000040000fa
:04015c003e0300005e
:020000040000fa
:040160003e0300005a
:020000040000fa
:040164003e03000056
:020000040000fa
:040168003e03000052
:020000040000fa
:04016c003e0300004e
:020000040000fa
:040170003e0300004a
:020000040000fa
:040174003e03000046
:020000040000fa
:040178003e03000042
:020000040000fa
:04017c003e0300003e
:020000040000fa
:040180003e0300003a
:020000040000fa
:040184003e03000036
:020000040000fa
:040188003e03000032
:020000040000fa
:04018c003e0300002e
:020000040000fa
:040190003e0300002a
:020000040000fa
:040194003e03000026
:020000040000fa
:040198003e03000022
:020000040000fa
:04019c003e0300001e
:020000040000fa
:0401a0003e0300001a
:020000040000fa
:0401a4003e03000016
:020000040000fa
:0401a8003e03000012
:020000040000fa
:0401ac003e0300000e
:020000040000fa
:0401b0003e0300000a
:020000040000fa
:0401b4003e03000006
:020000040000fa
:0401b8003e03000002
:020000040000fa
:0401bc003e030000fe
:020000040000fa
:0401c0003e030000fa
:020000040000fa
:0401c4003e030000f6
:020000040000fa
:0401c8003e030000f2
:020000040000fa
:0401cc003e030000ee
:020000040000fa
:0401d0003e030000ea
:020000040000fa
:0401d4003e030000e6
:020000040000fa
:0401d8003e030000e2
:020000040000fa
:0401dc003e030000de
:020000040000fa
:0401e0003e030000da
:020000040000fa
:0401e4003e030000d6
:020000040000fa
:0401e8003e030000d2
:020000040000fa
:0401ec003e030000ce
:020000040000fa
:0401f0003e030000ca
:020000040000fa
:0401f4003e030000c6
:020000040000fa
:0401f8003e030000c2
:020000040000fa
:0401fc003e030000be
:020000040000fa
:040200003e030000b9
:020000040000fa
:040204003e030000b5
:020000040000fa
:040208003e030000b1
:020000040000fa
:04020c003e030000ad
:020000040000fa
:040210003e030000a9
:020000040000fa
:040214003e030000a5
:020000040000fa
:040218003e030000a1
:020000040000fa
:04021c003e0300009d
:020000040000fa
:040220003e03000099
:020000040000fa
:040224003e03000095
:020000040000fa
:040228003e03000091
:020000040000fa
:04022c003e0300008d
:020000040000fa
:040230003e03000089
:020000040000fa
:040234003e03000085
:020000040000fa
:040238003e03000081
:020000040000fa
:04023c003e0300007d
:020000040000fa
:040240003e03000079
:020000040000fa
:040244003e03000075
:020000040000fa
:040248003e03000071
:020000040000fa
:04024c003e0300006d
:020000040000fa
:040250003e03000069
:020000040000fa
:040254003e03000065
:020000040000fa
:040258003e03000061
:020000040000fa
:04025c003e0300005d
:020000040000fa
:040260003e03000059
:020000040000fa
:040264003e03000055
:020000040000fa
:040268003e03000051
:020000040000fa
:04026c003e0300004d
:020000040000fa
:040270003e03000049
:020000040000fa
:040274003e03000045
:020000040000fa
:040278003e03000041
:020000040000fa
:04027c003e0300003d
:020000040000fa
:040280003e03000039
:020000040000fa
:040284003e03000035
:020000040000fa
:040288003e03000031
:020000040000fa
:04028c003e0300002d
:020000040000fa
:040290003e03000029
:020000040000fa
:040294003e03000025
:020000040000fa
:040298003e03000021
:020000040000fa
:04029c003e0300001d
:020000040000fa
:0402a0003e03000019
:020000040000fa
:0402a4003e03000015
:020000040000fa
:0402a8003e03000011
:020000040000fa
:0402ac003e0300000d
:020000040000fa
:0402b0003e03000009
:020000040000fa
:0402b4003e03000005
:020000040000fa
:0402b8003e03000001
:020000040000fa
:0402bc003e030000fd
:020000040000fa
:0402c0003e030000f9
:020000040000fa
:0402c4003e030000f5
:020000040000fa
:0402c8003e030000f1
:020000040000fa
:0402cc003e030000ed
:020000040000fa
:0402d0003e030000e9
:020000040000fa
:0402d4003e030000e5
:020000040000fa
:0402d8003e030000e1
:020000040000fa
:0402dc003e030000dd
:020000040000fa
:0402e0003e030000d9
:020000040000fa
:0402e4003e030000d5
:020000040000fa
:0402e8003e030000d1
:020000040000fa
:0402ec003e030000cd
:020000040000fa
:0402f0003e030000c9
:020000040000fa
:0402f4003e030000c5
:020000040000fa
:0402f8003e030000c1
:020000040000fa
:0402fc003e030000bd
:020000040000fa
:040300003e030000b8
:020000040000fa
:040304003e030000b4
:020000040000fa
:040308003e030000b0
:020000040000fa
:04030c003e030000ac
:020000040000fa
:040310003e030000a8
:020000040000fa
:040314003e030000a4
:020000040000fa
:040318003e030000a0
:020000040000fa
:04031c003e0300009c
:020000040000fa
:040320003e03000098
:020000040000fa
:040324003e03000094
:020000040000fa
:100400002f0321000eff22000e01880000000000d3
:10041000000020000000e000020032000001200087
:100420002002880014000700960007000000e0008a
:1004300003003a00e0fa200001002000020037002b
:100440000000200001002000810f70000100320038
:100450000f000700000020000000e0000200320052
:1004600000000200000000006c0e0200000000000e
:100470000040da000000fe00200020000000e00044
:1004800002003200100020009001880000000600e9
:10049000a1028800800478000000eb001f003700f4
:1004a000e284440054a0b4009905ba00e2844400f8
:1004b00054a0b4009906ba00e284440054a0b400e9
:1004c0000006eb00476fde00fd07b200ae018800ba
:1004d000636ce10003003a000ad801000000eb0061
:1004e0000e003700606ce10008003a00004deb00a0
:1004f0000a05e800020039003420ec000af0a000f0
:100500008b05e900f9ff3e00040037006168e10057
:10051000010032000086eb000b00070019c7ba008b
:100520001905ba000e04e00003003a000a00e000da
:10053000dbff3a0000000600fe07b200ae028800b2
:100540008a047800f5ff37000cd0a300e20f4d00bd
:100550001c003b0089027800354dba000a05e8000e
:10056000020039003420ec000af0a0008b05e900fd
:100570000f003200254dba000a05e80002003900dc
:100580003420ec000af0a0008b05e90008003200de
:100590000c00e0000600320015cdba000a05e800a4
:1005a000020039003420ec000af0a0008b05e900bd
:1005b0008984e80054a0b4000b00e000e2ff3a0098
:1005c000000006009902ba00055d78008b05e9007d
:1005d000f7ff3200c82ade00055d78008b05e900d0
:1005e000f3ff32000c00e000f1ff320019ddba0029
:1005f000eeff37003600f800809fbe00829fbe00ed
:10060000849fbe00869fbe000000fa00108080001c
:100610000000e8001080880000d0bf000004e00067
:10062000010032003c04070011808000703e200071
:10063000808f50000300360010c0b30004f0b700f4
:100640000230ef0008d0bf000004e00003003200d9
:10065000308080000000e900308088000028a90078
:100660000080fa004f03be004f02be004f01be00e3
:100670004f00be003600f900004006000040da00de
:100680000000fe00000005000001be00220007007f
:100690000470a70003f0a1006509b1001600320044
:1006a0000d0035006828e10006003500f0ff2f003e
:1006b000f1ff27000300e00013003b0001002800c9
:1006c0000000050000004000818048008502e9002c
:1006d000fcff3a0008003700f88f420002003c009f
:1006e0008000eb00000005008100d1000080d300f5
:1006f0008502e800fcff3a000300e00002003b0036
:1007000060001000e0801800000006004f89de0045
:10071000820178006a033700c70ade00f107b200e1
:10072000f50fb20008003200e1cf420002003200b3
:100730000170a00024000500810f7000010032004c
:100740000408050044000500810f700002003a0013
:10075000140005008502e9000000400081c0480047
:10076000fcff3b000170a0002400050007f82700f3
:10077000078361000638e10004003a00f707200013
:10078000878361008703710001003a0003f0a20033
:10079000889fbe008a9fbe008c9fbe00470ade0075
:1007a0000480a100c71ade000580a1000700280010
:1007b0000785600087856100f70f20000720e100b2
:1007c0009e0032000728e1009c00320001067800fc
:1007d0000400e000b4003200f707200087806000ca
:1007e0000170a0000500e000c0003200f707200003
:1007f000878161000370a000050652000f003a00d7
:100800000b50e1000b0032000308e10002003a0047
:100810000200e1007e003200020450008384580090
:10082000040031000001fd008101fd008402fd0093
:100830008a05fd006044b800210037000520e10072
:1008400005003d000001fd008101fd008402fd0066
:100850008a05fd00050652007a60e10005003500ba
:100860000170a1004722dd00848070008a80700042
:10087000630037006044b800ef02660007ff2f00f6
:10088000070666000500e00006003400f083120051
:100890008714dd000511de00071bdd000601710075
:1008a0008519de007060e10005003500090478005c
:1008b00082047800030178008001eb007006560086
:1008c0000b50e10003003a00020040008380480022
:1008d0000400370060041400e0841c00020058008b
:1008e000838058000188a300060032008100d100f7
:1008f0000080d3008984d3000884d3000402e80078
:10090000270037000178a30025003a000100e0002d
:10091000030032008186cf00698656000a00370046
:100920008c0020000000e00004003a00090078007c
:10093000880478000004eb00700252008086cf002b
:100940000d0646000c06e9007060e1000600350067
:100950008000780009007800880478000004eb002b
:1009600070065600700252000c00e0000c003400cb
:100970008c08dd00f00316000703de00868070009f
:100980000c00dd00074bde00060070008c4cdd0023
:100990000743de00868474000c44dd000c02520024
:1009a0006120e1002000350061016000070028009f
:1009b00087816400f7ff27008783640007037400c2
:1009c0000300e000060032008203730004003200de
:1009d0000000e800e08048000188a3000e003a0013
:1009e000f70f20000720e1004a003d000170a10040
:1009f0004722dd00810072008a8070000000be0086
:100a00004f06be004f05be004f04be0000000600aa
:100a10006000b800faff37008100d1000080d300e9
:100a20000402e800eeff3700040178008901740039
:100a3000a10107008a807000f1ff3700f70107006d
:100a4000070278000001fd008101fd00f3010700ad
:100a500087027800850372000778a3000400320043
:100a60000001fd008101fd0006020700e4ff3700e0
:100a7000850362000768a300080032000b50e10004
:100a800003003200f0ff2f00f1ff2700dcff3700ea
:100a90000001fd008101fd00d9ff37000468a300bb
:100aa000d7ff3200faff3700f8ff27008883600085
:100ab0000b003a000000e00009003a0083036400e4
:100ac00082837300020032000200be00ccff3700b8
:100ad0000b50e100ceff3a000200be00c8ff370015
:100ae00014002000810064003eff3700f8ff27005b
:100af0008883610004003a000200e00002003a002e
:100b00008c007800beff37001500200083016400d0
:100b100039ff370001f82700000020008100750030
:100b2000b7ff3700889fbe008a9fbe008c9fbe0023
:100b30001b0020000202be00058668000600280097
:100b4000060666004709de00f20fb200820032009e
:100b50000243e80080003200c729de00f30fb20034
:100b60007d0032000343e8007b003200f107b20051
:100b70000170a000f507b2000570a000c708dd00f5
:100b80004903de00868070004700dd00c72add00d3
:100b90004923de00868272004722dd0003055100f2
:100ba000040350008583580003003100000040001a
:100bb000818048000a05e9008c1f78008a9fbe00ea
:100bc00004005000858058000402420085824a00db
:100bd00000004000818048000005eb000004be00da
:100be0006033b8000406be000d48e1005600310035
:100bf000050009004dccd8000c01b8000d02b8006a
:100c00008481410060824a008283530003045c00b7
:100c100084845c0060055d000a00e00025003a0065
:100c2000800578000d40e10049003100880078001f
:100c300007007800050009004d88d8000c01b800b5
:100c40000d02b8008481410060824a0060031100f7
:100c500083835b0004045c00e0845c000900e00026
:100c600021003a004f01be000300e0002b003200db
:100c7000e3016000070673008c81710001003200ff
:100c8000640070004200de004e5edd000c0070006b
:100c9000c258de0001e0a00083010700cf01780008
:100ca000818071004f06be004f05be004f04be009c
:100cb000000006008c8343000d044c00e0844c00cf
:100cc00060054d000000e9000a00e000d4ff32009a
:100cd0008c8343000d044c00e0844c0060054d0003
:100ce0000000e900ceff37000c0343008d834b006a
:100cf00060044c00e0844c000000e9000900e000c2
:100d0000d8ff32000c0343008d834b0060044c007d
:100d1000e0844c000000e900d2ff37004200de0012
:100d20004e5edd000c007000c258de0001e0a00045
:100d3000cf0178000300e000daff3200600010000d
:100d4000e0801800d7ff3700f0ff2f00aaff370020
:100d5000f0ff2f00b9ff37000404be002f01070089
:100d6000870678000004fd008104fd002b010700c8
:100d7000078366000678a300030032000960a7001d
:100d80000800be002c0037000d78a30002003200de
:100d90000800be00280037000778a30026003a00ac
:100da00001f0a10009f0a1000668a30003003200d1
:100db000f1ff2700f0ff2f00baff37000d68a300f6
:100dc000030032000800be008c807000b5ff3700c1
:100dd0000768a30007003a000648a300030032009a
:100de000f1ff2700f0ff2f00aeff37000d48a300f2
:100df000030032006000b8008c807000a9ff37004b
:100e00000748a3000400320001f82700000020007a
:100e10008c807000a3ff3700760107000004fd00fe
:100e20008104fd0002057800720107000802be007f
:100e30008a01780059ff37000160a00012022000eb
:100e40006280880097ff37000100e0001200320046
:100e50000500e00010003200889fbe008a9fbe009f
:100e60008c9fbe000006eb0001f8a30003003200d7
:100e700060001000e08018000cf0a00005f8a3004e
:100e80000300320060021200e0821a000cf0a2009f
:100e90008005eb0041ff37006000b800020005004c
:100ea000038368000700280007036300470ade0089
:100eb0000480a100c71ade000580a100f70f200002
:100ec0000720e100420032000728e1004000320024
:100ed000889fbe008a9fbe008c1f7800f107b20079
:100ee000f307b2000400e000640032000170a000cb
:100ef0000500e000680032000370a0008505420094
:100f0000eb07b1000204b8000302b8008484440077
:100f100060854a00020ab800848444000a854a00b9
:100f2000030ab80004054500040033000804d0009b
:100f30008984d2000a85d2008b05e9006158e1005e
:100f40003d00350002102000090161000308200067
:100f500089816100f7072000878364000886730099
:100f6000c84cde00c853dd00878474004855de009d
:100f70000300e00006003200820376000400320025
:100f80008904e80060054d000a88a3000c003a00bf
:100f9000f70f20000758e10044003d000a70a1004f
:100fa000c75ddd000a8575008a00730009007800be
:100fb0004f0678004f05be004f04be00000006003b
:100fc0000a05d1008984d3008b05e800f0ff3700c3
:100fd000881f780006047800900007000702780058
:100fe0000001fd008101fd008c00070087027800f0
:100ff000850372000778a300050032000001fd00a0
:101000008101fd009f0007004f04780000000600ea
:10101000850372000748a30003003200f0ff2f0091
:10102000f1ff2700f8ff37000000200001f827003b
:1010300088807000f4ff3700880178004848dd00a0
:10104000808171004848de00c850dd00010070005a
:10105000c850de00060478000b0178001600070077
:1010600088807000d2ff37000500e00005003200e4
:10107000170020003a0007009dff37008103700031
:10108000f9ff3a00860078004f0678004f05be0051
:101090004f04be000000050083037100f9ff320019
:1010a000270020002e00070094ff370001f82700da
:1010b00086807000f4ff37000100e0002600320057
:1010c000610111007810e10023003c006022b800ab
:1010d0007010e10004003500800278000100780003
:1010e0008000eb00700151000200e00009003400b4
:1010f00070031100062add00822ade008603dd006f
:10110000878272000200de00860bdd00070070009f
:101110008208de0084817100f4ff270004826200ef
:1011200084817100040028008482620061026000f2
:1011300005f0a600000006000482710007003200de
:101140000000e800e0804800000006000002be0049
:101150006000b800efff37006000b8000000060034
:10116000889fbe000004eb006138e10016003a00e1
:101170000100e00008003a00c800de004800dd0081
:10118000880020000100e00003003a00c800de00f3
:101190004800dd00680444008184cf00e9845400e5
:1011a000060034008908dd00f08314008703de00a8
:1011b000878070000900dd0009044400610214000a
:1011c0004f04be00000006000300e00008003a00e3
:1011d000c811de004811dd00880020000300e00097
:1011e00003003a00c811de004811dd006804440025
:1011f0008384cf00e9845400060034008919dd009f
:10120000f08314008713de00878171000911dd006f
:1012100009044400e1021400e9ff37002700200020
:1012200001f0a70017002000470bde00f60fb20008
:10123000040032000643e8000a0032004702b3000f
:101240000000060001037800f607b20006037000f4
:1012500002003a000703b300000006008702b30053
:101260000000060001037800f607b20006037000d4
:10127000020032000770a000000006000760a00016
:10128000000006000478a300040032000578a300e3
:10129000030032000168a30001003a000200be0012
:1012a0000160a000000006008101700027003200ec
:1012b0008002eb0001f8a300030032006000100080
:1012c000e080180015002000f40720000202420010
:1012d00020003400f703200087036000060420008c
:1012e0000003630002082000000161004700de00e7
:1012f000c909dd0000807100c708de000600e000bb
:101300000800320087037100060032001000b000b0
:101310000180b0000188a30002003200c108de0095
:101320000402e800f107b200f30f20000320e100ff
:1013300003003d004722dd008100720029003700d4
:1013400001f827000000eb00260037006000b8001d
:1013500000000600680212007f20e1000200340055
:101360006000b8001f0037006011b8007020e10075
:101370000400350080017800010078008000eb0057
:10138000700252000400e00009003400f003120073
:101390000719dd008419de000703dd008681710076
:1013a0000400de00070bdd00060070008408de008c
:1013b000f7ff27008383630087037100060028007e
:1013c00003036300070032000700e00003003a0057
:1013d0006101600002817300020032001000b00061
:1013e0000180b0000500a6000000060001f0a0008a
:1013f000000006004f0ade004709de00f107b200d8
:10140000f20fb2000b003200f207b1000170a00031
:10141000c708dd00c901de00838070004700dd00e1
:101420000400a6000000060060001000e080180024
:1014300000000600810f700001003a000000060065
:101440008182cf000500e00010003e008082cf00c6
:10145000ee8242007028e1000400390007003e00df
:10146000800078000000eb000e003700708312004f
:101470008600de000500dd000a00370070835200a0
:101480008600dd000000eb0006003700e28252001b
:101490008508dd00708312000603de008680700080
:1014a0000500dd007507b0000501ea000400a60094
:1014b0000000060060001000e08018000000060038
:1014c000881f7800030478000300e00007003d0057
:1014d00060001000e080180060011900e081190030
:1014e00002003b0001f02d0003003700040007005c
:1014f00008f0a70001f0a0004f04780000000600eb
:10150000889fbe008a9fbe000082700004027100a6
:1015100004827100260032000004be000200be00fa
:101520006011b8006b092000950220000182cf00f5
:101530000a0039000541b1000082cf0007003900e0
:101540000541b1000982cf00040039000541b10016
:101550000882cf00010039000541b1000542520068
:10156000120032000a003b008281710061016400b8
:101570008100d1000080d3008984d3000884d30087
:101580008b05e8000442e800f7ff3a000700370047
:101590000804440089844c00000048008180480011
:1015a0008b05e9000442e900f9ff3a000300070057
:1015b0004f05be004f04be00000006008100200061
:1015c000618055000b003d000b00200061fe2f00e4
:1015d0000100e1001d00340082817100610164009e
:1015e0008904d1000884d3000000e800faff3a0023
:1015f00071002000610064000300700002006000c0
:101600000900320061044400e0844c000988a50010
:10161000050032008b05e8006808e10002003a008e
:101620008904d1000884d300f20f20000258e100a1
:1016300005003d00c75ddd00f907b2008980750037
:1016400008007800000006000bf827008b007800e7
:041650000000050091
:020000040000fa
:101654000000fa003acea9003aeea9003b8ea90098
:101664003baea900574ea900020ea9001e4ea900c8
:10167400026ea9001f4ea900570ea900562ea900fc
:10168400022ea900554ea900000ea9001c4ea90067
:10169400006ea900f070800000a0a100f070880026
:1016a4008041eb000041eb008040eb000040eb0088
:1016b4000600070038cea900002ea90010c0b30010
:1016c40000f0b7000080fa00000006000400fa00f1
:1016d400004f78001147980022479800334798003c
:1016e400e00221001e487800f00221009e40900094
:1016f4000148780000032100ae40900001487800c2
:1017040010032100be409000014878000080fa00d8
:10171400000006000200fa00830007000ad0bf00a0
:101724000080fb00e10221000080400010407800ae
:101734000080fb00e100210000804000104f780091
:101744009e40780061c060006140600061406000bc
:101754000080fb00610060004a00dd00d17280005f
:1017640001a0a10001007000d07288001e80fb005f
:10177400620060000080d100004078006140600099
:101784000080fb0061006000317080000100a10056
:1017940001007000307088001e80fb00640060004f
:1017a4004280de0000407800614060000080fb0061
:1017b400610060004200dd00117180000120a10081
:1017c40001007000107188001e80fb00680060003a
:1017d4004380de0000407800614060000080fb0030
:1017e400610060004300dd00317080000130a10021
:1017f40001007000307088001e80fb0070006000e3
:101804004480de0000407800614060000080fb00fe
:10181400610060004a00dd001171800001a0a10098
:1018240001007000107188009e80fb0000022000ff
:10183400008060004580de00004078006140600068
:101844000080fb00610060004800dd00d172800070
:101854000180a10001007000d07288009e80fb000e
:1018640000042000008060004680de000040780014
:10187400614060000080fb006100600000004000e7
:10188400d17280000110a10001007000d0728800a4
:101894000ad0bf000080fb00e10f50000d003200b1
:1018a400e10f500003003c000000e000060032009d
:1018b40011003700e20f500009003200e30f50001e
:1018c4000a0032000c0037003faea800062ea80024
:1018d400090037003f8ea800062ea9000600370035
:1018e4003eeea800062ea800030037003ecea80056
:1018f400062ea800000000000ad0bf000040e80047
:101904000af0b7000ad0bf00e34f500002003e00c7
:101914000ad0bf00010037000040eb000af0b70016
:101924000080fa00000006000000fa005b4ea800e8
:10193400060ea800224ea800066ea800234ea8009a
:101944005b0ea8005a2ea800062ea8003faea900e0
:101954003f8ea9003eeea9003ecea9000080fa0009
:10196400000006000000fa003a2ea9003a0ea90071
:101974001e6ea9001e8ea9003aaea8003a8ea800d9
:101984003a6ea8003a4ea800382ea900380ea900d5
:101994001c6ea9001c8ea900386ea900384ea9003f
:1019a4000080fa00000006000800fa006047980072
:1019b4000040eb00004f78000000eb001007980097
:1019c4006d0037001e4078000004e0006e003a000d
:1019d4003e2ea8003e0ea800226ea800228ea8006b
:1019e4001e009000e10f50000c003200e10f500087
:1019f40003003c000000e000060032000d00370048
:101a0400e20f500007003200e30f500007003200dd
:101a1400080037003e2ea900060037003e0ea9003c
:101a240004003700226ea90002003700228ea900ac
:101a3400000000000000eb00200798004800370079
:101a44002e009000e10f500017003200e10f50000b
:101a540003003c000000e000060032003d003700b7
:101a6400e20f50001c003200e30f50002600320049
:101a740038003700e171800000022000008060001f
:101a84000000e0002c003a002e009000c200dd00af
:101a94001e00900000804000e10121000080400011
:101aa400104f78002b003700e07180007000600058
:101ab4000000e00022003a002e009000c200dd0089
:101ac4001e00900000804000e101210000804000e1
:101ad400104f78001f003700e0718000680060003c
:101ae4000000e00018003a002e009000c200dd0063
:101af4001e00900000804000e101210000804000b1
:101b0400104f780013003700e0718000640060001b
:101b14000000e0000e003a002e009000c200dd003c
:101b24001e00900000804000e10121000080400080
:101b3400104f780007003700000000000500370050
:101b4400000000000300370000000000010037001f
:101b5400000000002e0090000000e800200798001c
:101b64002e009000e30f5000b5ff34001e009000db
:101b74000000e800100798001e009000e30f5000da
:101b840090ff340001003700000000001e40780080
:101b94000004e0000c0032006e409000e14f500061
:101ba40009003a001e80fb000003b100e90f500059
:101bb40003003c0000cdb3001e4f4000020037007c
:101bc40090ccb3001e4f40001e4078000080fa0005
:101bd400000006000000fa00024ea800004ea80013
:101be400b70007000080fa00000006000e00fa00ab
:101bf400889fbe003007980041079800520798005c
:101c0400630798000000eb00000f78006000b80044
:101c140010079800210798004158800000fc2f000d
:101c2400008060009000b30040588800312ba90068
:101c3400092ba80000a8210061002000fc00070077
:101c4400092ba900090ba80000000000815980009d
:101c540000202000008060000000e000fbff320054
:101c6400f0608000000f78003e019000ce019000eb
:101c74005e009000ee009000bbfa070002002f0007
:101c8400f3572400a6fb07000004be001e007800e2
:101c9400cf80de009cfa07000001be000800be00f1
:101ca4007efc07003e019000ce019000b7fa0700c9
:101cb40010079800210798001e009000ae009000c5
:101cc40070fa0700000078004f04be000080fa009c
:101cd400000006000a00fa00c10007005cfe0700cd
:101ce400bcff070002002c00f34724006000b8008a
:101cf400beff0700000f78009e007800803e2000a1
:101d040000017800050009008200d800100798003f
:101d14009e007800803e2000000178000500090044
:101d24008200d8008000fd0000017800b047210047
:101d34000090b900c388de004f90de0000805000a0
:101d4400200798009e007800b04721000089b90060
:101d54004399de004f88de00000051004206200057
:101d64008280b90000805000716626000181b900ac
:101d7400c298de004f80de000080500030079800db
:101d84001e007800716626000181b9004299de00c8
:101d9400cf80de0081005100ea09b900820078009a
:101da40001005000400798004e00900080417800e8
:101db4003e009000004178002e00900080407800a2
:101dc4001e0090000040780040fe0700c5ff370069
:101dd4000000fa00024ea800004ea80038000700d8
:101de4000080fa00000006000e00fa00889fbe0082
:101df400300798004107980052079800630798003d
:101e04000000eb00000f78006000b8001007980095
:101e1400210798004158800000fc2f0000806000da
:101e24009000b30040588800312ba900092ba8006a
:101e340000a82100610020007d000700092ba900f3
:101e4400090ba80000000000815980000020200038
:101e5400008060000000e000fbff3200f0608000c2
:101e6400000f78003e019000ce0190005e009000cb
:101e7400ee0090003cfa070002002f00f357240004
:101e840027fb07000004be001e007800cf80de00a0
:101e94001dfa07000001be000800be00fffb07009a
:101ea4003e019000ce01900038fa07001007980018
:101eb400210798004f04be000080fa0000000600cd
:101ec4000000fa0001eba90051588000f0ff230044
:101ed400008060005058880051588000f00f2c009a
:101ee400008060005058880051588000f00f2c008a
:101ef400008060005058880041588000f0ff2100a5
:101f0400008060004058880002eba9008000eb00cc
:101f140090210a00060b000001eba800116080006c
:101f2400f00f2f000080600000b0a0001060880057
:101f340000eca80000000000016080000000280000
:101f4400008060000000e000fbff32000aeba80004
:081f54000080fa000000060005
:020000040000fa
:101f5c0006100000040000008000000000100000cb
:101f6c0006000000800000000e10000010000000b1
:101f7c0082000000c0f9a400b099920082f88000a1
:101f8c0098888300c6a186008e0000002e100000e9
:101f9c0004000000800000000a1000000200000095
:101fac00800000001e1000001000000082000000e5
:101fbc003132330041343500364237003839430072
:101fcc0030464500440000000c10000002000000e8
:081fdc0080000000000000007d
:020000040000fa
:101fe4000000fa000421ef00401f20004008880090
:101ff40001088000f0fc2f00008060000040a00079
:10200400000888000021a90001428000f0f82f0098
:10201400008060000060a000004288000028a90041
:102024002028a80001e1a8000080fa0000000600b2
:020000040000fa
:10203400f03fb1000180b10006003500ee03090055
:1020440000000000403fb1000180b100fbff3d00f3
:102054001000b000203fb0000200350000800900ed
:0820640000000000000006006e
:020000040000fa
:10206c000200fa00000f78001e0078003080880013
:10207c0010c0b30008f0b7000000000030808000f2
:10208c000000e000fdff3a000870ef000080fa004d
:10209c00000006000000fa000080fa0000000600b4
:020000040000fa
:020000040001f9
:045e0000ffffff00a1
:020000040000fa
:020000040001f9
:045e2000ffffff0081
:020000040000fa
:020000040001f9
:045e3000f8ffff0078
:020000040000fa
:020000040001f9
:045e3800bfffff00a9
:020000040000fa
:020000040001f9
:045e4000ffffff0061
:020000040000fa
:020000040001f9
:045e4800ffffff0059
:020000040000fa
:020000040001f9
:045e5000dfffff0071
:020000040000fa
:020000040001f9
:045e5800ffffff0049
:020000040000fa
:020000040001f9
:045e6000ffffff0041
:020000040000fa
:020000040001f9
:045e6800ffffff0039
:020000040000fa
:020000040001f9
:045e7000ffffff0031
:020000040000fa
:020000040001f9
:045e7800ffffff0029
:020000040000fa
:020000040001f9
:045e8000fffcff0024
:020000040000fa
:020000040001f9
:045e8800ffffff0019
:00000001FF
